{
  "_format": "hh-sol-artifact-1",
  "contractName": "Auction",
  "sourceName": "contracts/Auction.sol",
  "abi": [
    {
      "inputs": [
        {
          "internalType": "address",
          "name": "_vault",
          "type": "address"
        }
      ],
      "stateMutability": "nonpayable",
      "type": "constructor"
    },
    {
      "anonymous": false,
      "inputs": [
        {
          "indexed": true,
          "internalType": "address",
          "name": "sender",
          "type": "address"
        },
        {
          "indexed": false,
          "internalType": "uint256",
          "name": "amount",
          "type": "uint256"
        }
      ],
      "name": "Bid",
      "type": "event"
    },
    {
      "anonymous": false,
      "inputs": [
        {
          "indexed": false,
          "internalType": "address",
          "name": "highestBidder",
          "type": "address"
        },
        {
          "indexed": false,
          "internalType": "uint256",
          "name": "amount",
          "type": "uint256"
        }
      ],
      "name": "End",
      "type": "event"
    },
    {
      "anonymous": false,
      "inputs": [],
      "name": "Start",
      "type": "event"
    },
    {
      "anonymous": false,
      "inputs": [
        {
          "indexed": true,
          "internalType": "address",
          "name": "bidder",
          "type": "address"
        },
        {
          "indexed": false,
          "internalType": "uint256",
          "name": "amount",
          "type": "uint256"
        }
      ],
      "name": "Withdraw",
      "type": "event"
    },
    {
      "inputs": [
        {
          "internalType": "uint256",
          "name": "_nftId",
          "type": "uint256"
        }
      ],
      "name": "bid",
      "outputs": [],
      "stateMutability": "payable",
      "type": "function"
    },
    {
      "inputs": [
        {
          "internalType": "uint256",
          "name": "_nftId",
          "type": "uint256"
        },
        {
          "internalType": "address",
          "name": "_bidder",
          "type": "address"
        }
      ],
      "name": "bidAmount",
      "outputs": [
        {
          "internalType": "uint256",
          "name": "",
          "type": "uint256"
        }
      ],
      "stateMutability": "view",
      "type": "function"
    },
    {
      "inputs": [
        {
          "internalType": "uint256",
          "name": "_nftId",
          "type": "uint256"
        }
      ],
      "name": "end",
      "outputs": [],
      "stateMutability": "nonpayable",
      "type": "function"
    },
    {
      "inputs": [],
      "name": "endAt",
      "outputs": [
        {
          "internalType": "uint32",
          "name": "",
          "type": "uint32"
        }
      ],
      "stateMutability": "view",
      "type": "function"
    },
    {
      "inputs": [],
      "name": "ended",
      "outputs": [
        {
          "internalType": "bool",
          "name": "",
          "type": "bool"
        }
      ],
      "stateMutability": "view",
      "type": "function"
    },
    {
      "inputs": [
        {
          "internalType": "uint256",
          "name": "_nftId",
          "type": "uint256"
        }
      ],
      "name": "isStart",
      "outputs": [
        {
          "internalType": "bool",
          "name": "",
          "type": "bool"
        }
      ],
      "stateMutability": "view",
      "type": "function"
    },
    {
      "inputs": [],
      "name": "nft",
      "outputs": [
        {
          "internalType": "contract IERC721",
          "name": "",
          "type": "address"
        }
      ],
      "stateMutability": "view",
      "type": "function"
    },
    {
      "inputs": [
        {
          "internalType": "uint256",
          "name": "",
          "type": "uint256"
        }
      ],
      "name": "nft_detail",
      "outputs": [
        {
          "internalType": "address payable",
          "name": "seller",
          "type": "address"
        },
        {
          "internalType": "address",
          "name": "highest_bidder",
          "type": "address"
        },
        {
          "internalType": "uint256",
          "name": "highest_bid",
          "type": "uint256"
        },
        {
          "internalType": "bool",
          "name": "start",
          "type": "bool"
        }
      ],
      "stateMutability": "view",
      "type": "function"
    },
    {
      "inputs": [
        {
          "internalType": "address",
          "name": "_nftContract",
          "type": "address"
        },
        {
          "internalType": "uint256",
          "name": "_nftId",
          "type": "uint256"
        },
        {
          "internalType": "uint256",
          "name": "_basePrice",
          "type": "uint256"
        },
        {
          "internalType": "uint256",
          "name": "time",
          "type": "uint256"
        }
      ],
      "name": "start",
      "outputs": [],
      "stateMutability": "nonpayable",
      "type": "function"
    },
    {
      "inputs": [
        {
          "internalType": "uint256",
          "name": "_nftId",
          "type": "uint256"
        }
      ],
      "name": "withdraw",
      "outputs": [],
      "stateMutability": "nonpayable",
      "type": "function"
    }
  ],
  "bytecode": "0x60806040523480156200001157600080fd5b5060405162001c0c38038062001c0c833981810160405281019062000037919062000095565b806000806101000a81548173ffffffffffffffffffffffffffffffffffffffff021916908373ffffffffffffffffffffffffffffffffffffffff160217905550506200010f565b6000815190506200008f81620000f5565b92915050565b600060208284031215620000a857600080fd5b6000620000b8848285016200007e565b91505092915050565b6000620000ce82620000d5565b9050919050565b600073ffffffffffffffffffffffffffffffffffffffff82169050919050565b6200010081620000c1565b81146200010c57600080fd5b50565b611aed806200011f6000396000f3fe6080604052600436106100915760003560e01c8063454a2ab311610059578063454a2ab31461018d57806347ccca02146101a95780637cc3ae8c146101d45780638491ec5b146101ff578063b76a3b5a1461023f57610091565b80630ad245281461009657806312fa6feb146100bf5780631b31cd42146100ea5780632d3f2b05146101275780632e1a7d4d14610164575b600080fd5b3480156100a257600080fd5b506100bd60048036038101906100b89190611255565b610268565b005b3480156100cb57600080fd5b506100d461084e565b6040516100e19190611571565b60405180910390f35b3480156100f657600080fd5b50610111600480360381019061010c9190611255565b610861565b60405161011e9190611571565b60405180910390f35b34801561013357600080fd5b5061014e6004803603810190610149919061127e565b61088e565b60405161015b91906116c7565b60405180910390f35b34801561017057600080fd5b5061018b60048036038101906101869190611255565b6108ec565b005b6101a760048036038101906101a29190611255565b610adb565b005b3480156101b557600080fd5b506101be610dfc565b6040516101cb919061158c565b60405180910390f35b3480156101e057600080fd5b506101e9610e22565b6040516101f6919061170b565b60405180910390f35b34801561020b57600080fd5b5061022660048036038101906102219190611255565b610e38565b6040516102369493929190611495565b60405180910390f35b34801561024b57600080fd5b50610266600480360381019061026191906111f2565b610eb5565b005b3373ffffffffffffffffffffffffffffffffffffffff166002600083815260200190815260200160002060000160009054906101000a900473ffffffffffffffffffffffffffffffffffffffff1673ffffffffffffffffffffffffffffffffffffffff161461030c576040517f08c379a000000000000000000000000000000000000000000000000000000000815260040161030390611687565b60405180910390fd5b600115156002600083815260200190815260200160002060030160009054906101000a900460ff16151514610376576040517f08c379a000000000000000000000000000000000000000000000000000000000815260040161036d906115a7565b60405180910390fd5b600360009054906101000a900463ffffffff1663ffffffff164210156103d1576040517f08c379a00000000000000000000000000000000000000000000000000000000081526004016103c890611627565b60405180910390fd5b60006002600083815260200190815260200160002060030160006101000a81548160ff021916908315150217905550600073ffffffffffffffffffffffffffffffffffffffff166002600083815260200190815260200160002060010160009054906101000a900473ffffffffffffffffffffffffffffffffffffffff1673ffffffffffffffffffffffffffffffffffffffff161461068c57600160009054906101000a900473ffffffffffffffffffffffffffffffffffffffff1673ffffffffffffffffffffffffffffffffffffffff166323b872dd306002600085815260200190815260200160002060010160009054906101000a900473ffffffffffffffffffffffffffffffffffffffff16846040518463ffffffff1660e01b81526004016104ff93929190611511565b600060405180830381600087803b15801561051957600080fd5b505af115801561052d573d6000803e3d6000fd5b505050506002600082815260200190815260200160002060000160009054906101000a900473ffffffffffffffffffffffffffffffffffffffff1673ffffffffffffffffffffffffffffffffffffffff166108fc60026000848152602001908152602001600020600201549081150290604051600060405180830381858888f193505050501580156105c3573d6000803e3d6000fd5b5060008054906101000a900473ffffffffffffffffffffffffffffffffffffffff1673ffffffffffffffffffffffffffffffffffffffff1663784796f7826002600085815260200190815260200160002060010160009054906101000a900473ffffffffffffffffffffffffffffffffffffffff166040518363ffffffff1660e01b81526004016106559291906116e2565b600060405180830381600087803b15801561066f57600080fd5b505af1158015610683573d6000803e3d6000fd5b50505050610754565b600160009054906101000a900473ffffffffffffffffffffffffffffffffffffffff1673ffffffffffffffffffffffffffffffffffffffff166323b872dd306002600085815260200190815260200160002060000160009054906101000a900473ffffffffffffffffffffffffffffffffffffffff16846040518463ffffffff1660e01b8152600401610721939291906114da565b600060405180830381600087803b15801561073b57600080fd5b505af115801561074f573d6000803e3d6000fd5b505050505b7f7d7570b046e5ead3a4f3fbc9fa2445113625a1e79823776146316bafed6b8cc56002600083815260200190815260200160002060010160009054906101000a900473ffffffffffffffffffffffffffffffffffffffff1660026000848152602001908152602001600020600201546040516107d1929190611548565b60405180910390a160006002600083815260200190815260200160002060010160006101000a81548173ffffffffffffffffffffffffffffffffffffffff021916908373ffffffffffffffffffffffffffffffffffffffff1602179055506000600260008381526020019081526020016000206002018190555050565b600360049054906101000a900460ff1681565b60006002600083815260200190815260200160002060030160009054906101000a900460ff169050919050565b60006002600084815260200190815260200160002060040160008373ffffffffffffffffffffffffffffffffffffffff1673ffffffffffffffffffffffffffffffffffffffff16815260200190815260200160002054905092915050565b3373ffffffffffffffffffffffffffffffffffffffff166002600083815260200190815260200160002060010160009054906101000a900473ffffffffffffffffffffffffffffffffffffffff1673ffffffffffffffffffffffffffffffffffffffff161415610991576040517f08c379a0000000000000000000000000000000000000000000000000000000008152600401610988906115e7565b60405180910390fd5b60006002600083815260200190815260200160002060040160003373ffffffffffffffffffffffffffffffffffffffff1673ffffffffffffffffffffffffffffffffffffffff16815260200190815260200160002054905060006002600084815260200190815260200160002060040160003373ffffffffffffffffffffffffffffffffffffffff1673ffffffffffffffffffffffffffffffffffffffff168152602001908152602001600020819055503373ffffffffffffffffffffffffffffffffffffffff166108fc829081150290604051600060405180830381858888f19350505050158015610a88573d6000803e3d6000fd5b503373ffffffffffffffffffffffffffffffffffffffff167f884edad9ce6fa2440d8a54cc123490eb96d2768479d49ff9c7366125a942436482604051610acf91906116c7565b60405180910390a25050565b6002600082815260200190815260200160002060000160009054906101000a900473ffffffffffffffffffffffffffffffffffffffff1673ffffffffffffffffffffffffffffffffffffffff163373ffffffffffffffffffffffffffffffffffffffff161415610b80576040517f08c379a0000000000000000000000000000000000000000000000000000000008152600401610b77906115c7565b60405180910390fd5b600115156002600083815260200190815260200160002060030160009054906101000a900460ff16151514610bea576040517f08c379a0000000000000000000000000000000000000000000000000000000008152600401610be1906115a7565b60405180910390fd5b600360009054906101000a900463ffffffff1663ffffffff164210610c44576040517f08c379a0000000000000000000000000000000000000000000000000000000008152600401610c3b90611607565b60405180910390fd5b60026000828152602001908152602001600020600201543411610c9c576040517f08c379a0000000000000000000000000000000000000000000000000000000008152600401610c9390611647565b60405180910390fd5b600073ffffffffffffffffffffffffffffffffffffffff163373ffffffffffffffffffffffffffffffffffffffff1614610d3b57346002600083815260200190815260200160002060040160003373ffffffffffffffffffffffffffffffffffffffff1673ffffffffffffffffffffffffffffffffffffffff1681526020019081526020016000206000828254610d339190611737565b925050819055505b346002600083815260200190815260200160002060020181905550336002600083815260200190815260200160002060010160006101000a81548173ffffffffffffffffffffffffffffffffffffffff021916908373ffffffffffffffffffffffffffffffffffffffff1602179055503373ffffffffffffffffffffffffffffffffffffffff167fe684a55f31b79eca403df938249029212a5925ec6be8012e099b45bc1019e5d234604051610df191906116c7565b60405180910390a250565b600160009054906101000a900473ffffffffffffffffffffffffffffffffffffffff1681565b600360009054906101000a900463ffffffff1681565b60026020528060005260406000206000915090508060000160009054906101000a900473ffffffffffffffffffffffffffffffffffffffff16908060010160009054906101000a900473ffffffffffffffffffffffffffffffffffffffff16908060020154908060030160009054906101000a900460ff16905084565b83600160006101000a81548173ffffffffffffffffffffffffffffffffffffffff021916908373ffffffffffffffffffffffffffffffffffffffff160217905550336002600085815260200190815260200160002060000160006101000a81548173ffffffffffffffffffffffffffffffffffffffff021916908373ffffffffffffffffffffffffffffffffffffffff1602179055508160026000858152602001908152602001600020600201819055506002600084815260200190815260200160002060000160009054906101000a900473ffffffffffffffffffffffffffffffffffffffff1673ffffffffffffffffffffffffffffffffffffffff163373ffffffffffffffffffffffffffffffffffffffff161461100a576040517f08c379a000000000000000000000000000000000000000000000000000000000815260040161100190611667565b60405180910390fd5b600015156002600085815260200190815260200160002060030160009054906101000a900460ff16151514611074576040517f08c379a000000000000000000000000000000000000000000000000000000000815260040161106b906116a7565b60405180910390fd5b60016002600085815260200190815260200160002060030160006101000a81548160ff02191690831515021790555080426110af9190611737565b600360006101000a81548163ffffffff021916908363ffffffff160217905550600160009054906101000a900473ffffffffffffffffffffffffffffffffffffffff1673ffffffffffffffffffffffffffffffffffffffff166323b872dd6002600086815260200190815260200160002060000160009054906101000a900473ffffffffffffffffffffffffffffffffffffffff1630866040518463ffffffff1660e01b81526004016111649392919061145e565b600060405180830381600087803b15801561117e57600080fd5b505af1158015611192573d6000803e3d6000fd5b505050507f1b55ba3aa851a46be3b365aee5b5c140edd620d578922f3e8466d2cbd96f954b60405160405180910390a150505050565b6000813590506111d781611a89565b92915050565b6000813590506111ec81611aa0565b92915050565b6000806000806080858703121561120857600080fd5b6000611216878288016111c8565b9450506020611227878288016111dd565b9350506040611238878288016111dd565b9250506060611249878288016111dd565b91505092959194509250565b60006020828403121561126757600080fd5b6000611275848285016111dd565b91505092915050565b6000806040838503121561129157600080fd5b600061129f858286016111dd565b92505060206112b0858286016111c8565b9150509250929050565b6112c3816117f7565b82525050565b6112d28161179f565b82525050565b6112e18161178d565b82525050565b6112f0816117b1565b82525050565b6112ff81611809565b82525050565b6000611312600b83611726565b915061131d82611880565b602082019050919050565b6000611335603483611726565b9150611340826118a9565b604082019050919050565b6000611358604283611726565b9150611363826118f8565b606082019050919050565b600061137b601183611726565b91506113868261196d565b602082019050919050565b600061139e600983611726565b91506113a982611996565b602082019050919050565b60006113c1601b83611726565b91506113cc826119bf565b602082019050919050565b60006113e4600a83611726565b91506113ef826119e8565b602082019050919050565b6000611407602183611726565b915061141282611a11565b604082019050919050565b600061142a600783611726565b915061143582611a60565b602082019050919050565b611449816117dd565b82525050565b611458816117e7565b82525050565b600060608201905061147360008301866112ba565b61148060208301856112d8565b61148d6040830184611440565b949350505050565b60006080820190506114aa60008301876112c9565b6114b760208301866112d8565b6114c46040830185611440565b6114d160608301846112e7565b95945050505050565b60006060820190506114ef60008301866112d8565b6114fc60208301856112ba565b6115096040830184611440565b949350505050565b600060608201905061152660008301866112d8565b61153360208301856112d8565b6115406040830184611440565b949350505050565b600060408201905061155d60008301856112d8565b61156a6020830184611440565b9392505050565b600060208201905061158660008301846112e7565b92915050565b60006020820190506115a160008301846112f6565b92915050565b600060208201905081810360008301526115c081611305565b9050919050565b600060208201905081810360008301526115e081611328565b9050919050565b600060208201905081810360008301526116008161134b565b9050919050565b600060208201905081810360008301526116208161136e565b9050919050565b6000602082019050818103600083015261164081611391565b9050919050565b60006020820190508181036000830152611660816113b4565b9050919050565b60006020820190508181036000830152611680816113d7565b9050919050565b600060208201905081810360008301526116a0816113fa565b9050919050565b600060208201905081810360008301526116c08161141d565b9050919050565b60006020820190506116dc6000830184611440565b92915050565b60006040820190506116f76000830185611440565b61170460208301846112d8565b9392505050565b6000602082019050611720600083018461144f565b92915050565b600082825260208201905092915050565b6000611742826117dd565b915061174d836117dd565b9250827fffffffffffffffffffffffffffffffffffffffffffffffffffffffffffffffff0382111561178257611781611851565b5b828201905092915050565b6000611798826117bd565b9050919050565b60006117aa826117bd565b9050919050565b60008115159050919050565b600073ffffffffffffffffffffffffffffffffffffffff82169050919050565b6000819050919050565b600063ffffffff82169050919050565b60006118028261182d565b9050919050565b60006118148261181b565b9050919050565b6000611826826117bd565b9050919050565b60006118388261183f565b9050919050565b600061184a826117bd565b9050919050565b7f4e487b7100000000000000000000000000000000000000000000000000000000600052601160045260246000fd5b7f4e6f742053746172746564000000000000000000000000000000000000000000600082015250565b7f596f7520617265206e6f7420616c6c6f7720746f20706c61636520626964206260008201527f65636175736520796f7520617265204f776e6572000000000000000000000000602082015250565b7f596f7520617265206e6f7420616c6c6f7720746f20776974686472617720616d60008201527f6f756e74206265636175736520796f752061726520486967686573744269646460208201527f6572000000000000000000000000000000000000000000000000000000000000604082015250565b7f42696420616c726561647920656e646564000000000000000000000000000000600082015250565b7f4e6f7420656e6465640000000000000000000000000000000000000000000000600082015250565b7f56616c7565206c657373207468616e2068696768657374206269640000000000600082015250565b7f4e6f742073656c6c657200000000000000000000000000000000000000000000600082015250565b7f596f7520617265206e6f7420616c6c6f7720746f2073746f702042696464696e60008201527f6700000000000000000000000000000000000000000000000000000000000000602082015250565b7f5374617274656400000000000000000000000000000000000000000000000000600082015250565b611a928161178d565b8114611a9d57600080fd5b50565b611aa9816117dd565b8114611ab457600080fd5b5056fea264697066735822122034d0557a4745a5ed708444777f93f053b92a38f54030d6c2ce5999726699248964736f6c63430008040033",
  "linkReferences": {},
  "deployedLinkReferences": {}
}