{
  "_format": "hh-sol-artifact-1",
  "contractName": "NFTMarketplace",
  "sourceName": "contracts/NFTMarketplace.sol",
  "abi": [
    {
      "inputs": [],
      "stateMutability": "nonpayable",
      "type": "constructor"
    },
    {
      "anonymous": false,
      "inputs": [
        {
          "indexed": true,
          "internalType": "address",
          "name": "owner",
          "type": "address"
        },
        {
          "indexed": true,
          "internalType": "address",
          "name": "approved",
          "type": "address"
        },
        {
          "indexed": true,
          "internalType": "uint256",
          "name": "tokenId",
          "type": "uint256"
        }
      ],
      "name": "Approval",
      "type": "event"
    },
    {
      "anonymous": false,
      "inputs": [
        {
          "indexed": true,
          "internalType": "address",
          "name": "owner",
          "type": "address"
        },
        {
          "indexed": true,
          "internalType": "address",
          "name": "operator",
          "type": "address"
        },
        {
          "indexed": false,
          "internalType": "bool",
          "name": "approved",
          "type": "bool"
        }
      ],
      "name": "ApprovalForAll",
      "type": "event"
    },
    {
      "anonymous": false,
      "inputs": [
        {
          "indexed": true,
          "internalType": "uint256",
          "name": "tokenId",
          "type": "uint256"
        },
        {
          "indexed": false,
          "internalType": "address",
          "name": "seller",
          "type": "address"
        },
        {
          "indexed": false,
          "internalType": "address",
          "name": "owner",
          "type": "address"
        },
        {
          "indexed": false,
          "internalType": "uint256",
          "name": "price",
          "type": "uint256"
        },
        {
          "indexed": false,
          "internalType": "bool",
          "name": "sold",
          "type": "bool"
        }
      ],
      "name": "MarketItemCreated",
      "type": "event"
    },
    {
      "anonymous": false,
      "inputs": [
        {
          "indexed": true,
          "internalType": "address",
          "name": "from",
          "type": "address"
        },
        {
          "indexed": true,
          "internalType": "address",
          "name": "to",
          "type": "address"
        },
        {
          "indexed": true,
          "internalType": "uint256",
          "name": "tokenId",
          "type": "uint256"
        }
      ],
      "name": "Transfer",
      "type": "event"
    },
    {
      "inputs": [
        {
          "internalType": "address",
          "name": "to",
          "type": "address"
        },
        {
          "internalType": "uint256",
          "name": "tokenId",
          "type": "uint256"
        }
      ],
      "name": "approve",
      "outputs": [],
      "stateMutability": "nonpayable",
      "type": "function"
    },
    {
      "inputs": [
        {
          "internalType": "address",
          "name": "owner",
          "type": "address"
        }
      ],
      "name": "balanceOf",
      "outputs": [
        {
          "internalType": "uint256",
          "name": "",
          "type": "uint256"
        }
      ],
      "stateMutability": "view",
      "type": "function"
    },
    {
      "inputs": [
        {
          "internalType": "uint256",
          "name": "_tokenId",
          "type": "uint256"
        },
        {
          "internalType": "address",
          "name": "_currentOwner",
          "type": "address"
        }
      ],
      "name": "changeOwner",
      "outputs": [],
      "stateMutability": "nonpayable",
      "type": "function"
    },
    {
      "inputs": [
        {
          "internalType": "uint256",
          "name": "tokenId",
          "type": "uint256"
        }
      ],
      "name": "createMarketSale",
      "outputs": [],
      "stateMutability": "payable",
      "type": "function"
    },
    {
      "inputs": [
        {
          "internalType": "string",
          "name": "tokenURI",
          "type": "string"
        },
        {
          "internalType": "uint256",
          "name": "price",
          "type": "uint256"
        }
      ],
      "name": "createToken",
      "outputs": [
        {
          "internalType": "uint256",
          "name": "",
          "type": "uint256"
        }
      ],
      "stateMutability": "payable",
      "type": "function"
    },
    {
      "inputs": [],
      "name": "fetchItemsListed",
      "outputs": [
        {
          "components": [
            {
              "internalType": "uint256",
              "name": "tokenId",
              "type": "uint256"
            },
            {
              "internalType": "address payable",
              "name": "seller",
              "type": "address"
            },
            {
              "internalType": "address payable",
              "name": "owner",
              "type": "address"
            },
            {
              "internalType": "uint256",
              "name": "price",
              "type": "uint256"
            },
            {
              "internalType": "bool",
              "name": "sold",
              "type": "bool"
            }
          ],
          "internalType": "struct NFTMarketplace.MarketItem[]",
          "name": "",
          "type": "tuple[]"
        }
      ],
      "stateMutability": "view",
      "type": "function"
    },
    {
      "inputs": [],
      "name": "fetchMarketItems",
      "outputs": [
        {
          "components": [
            {
              "internalType": "uint256",
              "name": "tokenId",
              "type": "uint256"
            },
            {
              "internalType": "address payable",
              "name": "seller",
              "type": "address"
            },
            {
              "internalType": "address payable",
              "name": "owner",
              "type": "address"
            },
            {
              "internalType": "uint256",
              "name": "price",
              "type": "uint256"
            },
            {
              "internalType": "bool",
              "name": "sold",
              "type": "bool"
            }
          ],
          "internalType": "struct NFTMarketplace.MarketItem[]",
          "name": "",
          "type": "tuple[]"
        }
      ],
      "stateMutability": "view",
      "type": "function"
    },
    {
      "inputs": [],
      "name": "fetchMyNFTs",
      "outputs": [
        {
          "components": [
            {
              "internalType": "uint256",
              "name": "tokenId",
              "type": "uint256"
            },
            {
              "internalType": "address payable",
              "name": "seller",
              "type": "address"
            },
            {
              "internalType": "address payable",
              "name": "owner",
              "type": "address"
            },
            {
              "internalType": "uint256",
              "name": "price",
              "type": "uint256"
            },
            {
              "internalType": "bool",
              "name": "sold",
              "type": "bool"
            }
          ],
          "internalType": "struct NFTMarketplace.MarketItem[]",
          "name": "",
          "type": "tuple[]"
        }
      ],
      "stateMutability": "view",
      "type": "function"
    },
    {
      "inputs": [
        {
          "internalType": "uint256",
          "name": "tokenId",
          "type": "uint256"
        }
      ],
      "name": "getApproved",
      "outputs": [
        {
          "internalType": "address",
          "name": "",
          "type": "address"
        }
      ],
      "stateMutability": "view",
      "type": "function"
    },
    {
      "inputs": [],
      "name": "getListingPrice",
      "outputs": [
        {
          "internalType": "uint256",
          "name": "",
          "type": "uint256"
        }
      ],
      "stateMutability": "view",
      "type": "function"
    },
    {
      "inputs": [
        {
          "internalType": "address",
          "name": "owner",
          "type": "address"
        },
        {
          "internalType": "address",
          "name": "operator",
          "type": "address"
        }
      ],
      "name": "isApprovedForAll",
      "outputs": [
        {
          "internalType": "bool",
          "name": "",
          "type": "bool"
        }
      ],
      "stateMutability": "view",
      "type": "function"
    },
    {
      "inputs": [],
      "name": "name",
      "outputs": [
        {
          "internalType": "string",
          "name": "",
          "type": "string"
        }
      ],
      "stateMutability": "view",
      "type": "function"
    },
    {
      "inputs": [
        {
          "internalType": "uint256",
          "name": "tokenId",
          "type": "uint256"
        }
      ],
      "name": "ownerOf",
      "outputs": [
        {
          "internalType": "address",
          "name": "",
          "type": "address"
        }
      ],
      "stateMutability": "view",
      "type": "function"
    },
    {
      "inputs": [
        {
          "internalType": "uint256",
          "name": "tokenId",
          "type": "uint256"
        },
        {
          "internalType": "uint256",
          "name": "price",
          "type": "uint256"
        }
      ],
      "name": "resellToken",
      "outputs": [],
      "stateMutability": "payable",
      "type": "function"
    },
    {
      "inputs": [
        {
          "internalType": "address",
          "name": "from",
          "type": "address"
        },
        {
          "internalType": "address",
          "name": "to",
          "type": "address"
        },
        {
          "internalType": "uint256",
          "name": "tokenId",
          "type": "uint256"
        }
      ],
      "name": "safeTransferFrom",
      "outputs": [],
      "stateMutability": "nonpayable",
      "type": "function"
    },
    {
      "inputs": [
        {
          "internalType": "address",
          "name": "from",
          "type": "address"
        },
        {
          "internalType": "address",
          "name": "to",
          "type": "address"
        },
        {
          "internalType": "uint256",
          "name": "tokenId",
          "type": "uint256"
        },
        {
          "internalType": "bytes",
          "name": "data",
          "type": "bytes"
        }
      ],
      "name": "safeTransferFrom",
      "outputs": [],
      "stateMutability": "nonpayable",
      "type": "function"
    },
    {
      "inputs": [
        {
          "internalType": "address",
          "name": "operator",
          "type": "address"
        },
        {
          "internalType": "bool",
          "name": "approved",
          "type": "bool"
        }
      ],
      "name": "setApprovalForAll",
      "outputs": [],
      "stateMutability": "nonpayable",
      "type": "function"
    },
    {
      "inputs": [
        {
          "internalType": "bytes4",
          "name": "interfaceId",
          "type": "bytes4"
        }
      ],
      "name": "supportsInterface",
      "outputs": [
        {
          "internalType": "bool",
          "name": "",
          "type": "bool"
        }
      ],
      "stateMutability": "view",
      "type": "function"
    },
    {
      "inputs": [],
      "name": "symbol",
      "outputs": [
        {
          "internalType": "string",
          "name": "",
          "type": "string"
        }
      ],
      "stateMutability": "view",
      "type": "function"
    },
    {
      "inputs": [
        {
          "internalType": "uint256",
          "name": "tokenId",
          "type": "uint256"
        }
      ],
      "name": "tokenURI",
      "outputs": [
        {
          "internalType": "string",
          "name": "",
          "type": "string"
        }
      ],
      "stateMutability": "view",
      "type": "function"
    },
    {
      "inputs": [
        {
          "internalType": "address",
          "name": "from",
          "type": "address"
        },
        {
          "internalType": "address",
          "name": "to",
          "type": "address"
        },
        {
          "internalType": "uint256",
          "name": "tokenId",
          "type": "uint256"
        }
      ],
      "name": "transferFrom",
      "outputs": [],
      "stateMutability": "nonpayable",
      "type": "function"
    },
    {
      "inputs": [
        {
          "internalType": "uint256",
          "name": "_listingPrice",
          "type": "uint256"
        }
      ],
      "name": "updateListingPrice",
      "outputs": [],
      "stateMutability": "payable",
      "type": "function"
    }
  ],
  "bytecode": "0x608060405260016009553480156200001657600080fd5b506040518060400160405280601181526020017f536f75726365536f667420546f6b656e730000000000000000000000000000008152506040518060400160405280600381526020017f535353000000000000000000000000000000000000000000000000000000000081525081600090805190602001906200009b929190620000fe565b508060019080519060200190620000b4929190620000fe565b50505033600a60006101000a81548173ffffffffffffffffffffffffffffffffffffffff021916908373ffffffffffffffffffffffffffffffffffffffff16021790555062000213565b8280546200010c90620001ae565b90600052602060002090601f0160209004810192826200013057600085556200017c565b82601f106200014b57805160ff19168380011785556200017c565b828001600101855582156200017c579182015b828111156200017b5782518255916020019190600101906200015e565b5b5090506200018b91906200018f565b5090565b5b80821115620001aa57600081600090555060010162000190565b5090565b60006002820490506001821680620001c757607f821691505b60208210811415620001de57620001dd620001e4565b5b50919050565b7f4e487b7100000000000000000000000000000000000000000000000000000000600052602260045260246000fd5b61400e80620002236000396000f3fe6080604052600436106101355760003560e01c806370a08231116100ab578063ae677aa31161006f578063ae677aa31461042d578063b88d4fde14610449578063be9af53614610472578063c87b56dd1461048e578063e219fc75146104cb578063e985e9c5146104e757610135565b806370a082311461034357806372b3b62014610380578063784796f7146103b057806395d89b41146103d9578063a22cb4651461040457610135565b806312e85585116100fd57806312e8558514610233578063202e37401461025e57806323b872dd1461028957806342842e0e146102b257806345f8fa80146102db5780636352211e1461030657610135565b806301ffc9a71461013a57806306fdde0314610177578063081812fc146101a2578063095ea7b3146101df5780630f08efe014610208575b600080fd5b34801561014657600080fd5b50610161600480360381019061015c9190612e12565b610524565b60405161016e9190613479565b60405180910390f35b34801561018357600080fd5b5061018c610606565b6040516101999190613494565b60405180910390f35b3480156101ae57600080fd5b506101c960048036038101906101c49190612eb8565b610698565b6040516101d691906133ab565b60405180910390f35b3480156101eb57600080fd5b5061020660048036038101906102019190612dd6565b6106de565b005b34801561021457600080fd5b5061021d6107f6565b60405161022a9190613457565b60405180910390f35b34801561023f57600080fd5b50610248610aab565b60405161025591906136d6565b60405180910390f35b34801561026a57600080fd5b50610273610ab5565b6040516102809190613457565b60405180910390f35b34801561029557600080fd5b506102b060048036038101906102ab9190612cd0565b610def565b005b3480156102be57600080fd5b506102d960048036038101906102d49190612cd0565b610e4f565b005b3480156102e757600080fd5b506102f0610e6f565b6040516102fd9190613457565b60405180910390f35b34801561031257600080fd5b5061032d60048036038101906103289190612eb8565b6111a9565b60405161033a91906133ab565b60405180910390f35b34801561034f57600080fd5b5061036a60048036038101906103659190612c6b565b61125b565b60405161037791906136d6565b60405180910390f35b61039a60048036038101906103959190612e64565b611313565b6040516103a791906136d6565b60405180910390f35b3480156103bc57600080fd5b506103d760048036038101906103d29190612ee1565b611355565b005b3480156103e557600080fd5b506103ee6113ae565b6040516103fb9190613494565b60405180910390f35b34801561041057600080fd5b5061042b60048036038101906104269190612d9a565b611440565b005b61044760048036038101906104429190612eb8565b611456565b005b34801561045557600080fd5b50610470600480360381019061046b9190612d1f565b6114f0565b005b61048c60048036038101906104879190612eb8565b611552565b005b34801561049a57600080fd5b506104b560048036038101906104b09190612eb8565b6117cc565b6040516104c29190613494565b60405180910390f35b6104e560048036038101906104e09190612f1d565b6118df565b005b3480156104f357600080fd5b5061050e60048036038101906105099190612c94565b611a85565b60405161051b9190613479565b60405180910390f35b60007f80ac58cd000000000000000000000000000000000000000000000000000000007bffffffffffffffffffffffffffffffffffffffffffffffffffffffff1916827bffffffffffffffffffffffffffffffffffffffffffffffffffffffff191614806105ef57507f5b5e139f000000000000000000000000000000000000000000000000000000007bffffffffffffffffffffffffffffffffffffffffffffffffffffffff1916827bffffffffffffffffffffffffffffffffffffffffffffffffffffffff1916145b806105ff57506105fe82611b19565b5b9050919050565b60606000805461061590613977565b80601f016020809104026020016040519081016040528092919081815260200182805461064190613977565b801561068e5780601f106106635761010080835404028352916020019161068e565b820191906000526020600020905b81548152906001019060200180831161067157829003601f168201915b5050505050905090565b60006106a382611b83565b6004600083815260200190815260200160002060009054906101000a900473ffffffffffffffffffffffffffffffffffffffff169050919050565b60006106e9826111a9565b90508073ffffffffffffffffffffffffffffffffffffffff168373ffffffffffffffffffffffffffffffffffffffff16141561075a576040517f08c379a000000000000000000000000000000000000000000000000000000000815260040161075190613676565b60405180910390fd5b8073ffffffffffffffffffffffffffffffffffffffff16610779611bce565b73ffffffffffffffffffffffffffffffffffffffff1614806107a857506107a7816107a2611bce565b611a85565b5b6107e7576040517f08c379a00000000000000000000000000000000000000000000000000000000081526004016107de906135d6565b60405180910390fd5b6107f18383611bd6565b505050565b606060006108046007611c8f565b905060006108126008611c8f565b61081c6007611c8f565b610826919061387b565b90506000808267ffffffffffffffff81111561086b577f4e487b7100000000000000000000000000000000000000000000000000000000600052604160045260246000fd5b6040519080825280602002602001820160405280156108a457816020015b610891612a32565b8152602001906001900390816108895790505b50905060005b84811015610aa0573073ffffffffffffffffffffffffffffffffffffffff16600b60006001846108da91906137f4565b815260200190815260200160002060010160009054906101000a900473ffffffffffffffffffffffffffffffffffffffff1673ffffffffffffffffffffffffffffffffffffffff161415610a8d57600060018261093791906137f4565b90506000600b60008381526020019081526020016000209050806040518060a0016040529081600082015481526020016001820160009054906101000a900473ffffffffffffffffffffffffffffffffffffffff1673ffffffffffffffffffffffffffffffffffffffff1673ffffffffffffffffffffffffffffffffffffffff1681526020016002820160009054906101000a900473ffffffffffffffffffffffffffffffffffffffff1673ffffffffffffffffffffffffffffffffffffffff1673ffffffffffffffffffffffffffffffffffffffff168152602001600382015481526020016004820160009054906101000a900460ff161515151581525050848681518110610a70577f4e487b7100000000000000000000000000000000000000000000000000000000600052603260045260246000fd5b6020026020010181905250600185610a8891906137f4565b945050505b8080610a98906139da565b9150506108aa565b508094505050505090565b6000600954905090565b60606000610ac36007611c8f565b905060008060005b83811015610b6c573373ffffffffffffffffffffffffffffffffffffffff16600b6000600184610afb91906137f4565b815260200190815260200160002060020160009054906101000a900473ffffffffffffffffffffffffffffffffffffffff1673ffffffffffffffffffffffffffffffffffffffff161415610b5957600183610b5691906137f4565b92505b8080610b64906139da565b915050610acb565b5060008267ffffffffffffffff811115610baf577f4e487b7100000000000000000000000000000000000000000000000000000000600052604160045260246000fd5b604051908082528060200260200182016040528015610be857816020015b610bd5612a32565b815260200190600190039081610bcd5790505b50905060005b84811015610de4573373ffffffffffffffffffffffffffffffffffffffff16600b6000600184610c1e91906137f4565b815260200190815260200160002060020160009054906101000a900473ffffffffffffffffffffffffffffffffffffffff1673ffffffffffffffffffffffffffffffffffffffff161415610dd1576000600182610c7b91906137f4565b90506000600b60008381526020019081526020016000209050806040518060a0016040529081600082015481526020016001820160009054906101000a900473ffffffffffffffffffffffffffffffffffffffff1673ffffffffffffffffffffffffffffffffffffffff1673ffffffffffffffffffffffffffffffffffffffff1681526020016002820160009054906101000a900473ffffffffffffffffffffffffffffffffffffffff1673ffffffffffffffffffffffffffffffffffffffff1673ffffffffffffffffffffffffffffffffffffffff168152602001600382015481526020016004820160009054906101000a900460ff161515151581525050848681518110610db4577f4e487b7100000000000000000000000000000000000000000000000000000000600052603260045260246000fd5b6020026020010181905250600185610dcc91906137f4565b945050505b8080610ddc906139da565b915050610bee565b508094505050505090565b610e00610dfa611bce565b82611c9d565b610e3f576040517f08c379a0000000000000000000000000000000000000000000000000000000008152600401610e36906136b6565b60405180910390fd5b610e4a838383611d32565b505050565b610e6a838383604051806020016040528060008152506114f0565b505050565b60606000610e7d6007611c8f565b905060008060005b83811015610f26573373ffffffffffffffffffffffffffffffffffffffff16600b6000600184610eb591906137f4565b815260200190815260200160002060010160009054906101000a900473ffffffffffffffffffffffffffffffffffffffff1673ffffffffffffffffffffffffffffffffffffffff161415610f1357600183610f1091906137f4565b92505b8080610f1e906139da565b915050610e85565b5060008267ffffffffffffffff811115610f69577f4e487b7100000000000000000000000000000000000000000000000000000000600052604160045260246000fd5b604051908082528060200260200182016040528015610fa257816020015b610f8f612a32565b815260200190600190039081610f875790505b50905060005b8481101561119e573373ffffffffffffffffffffffffffffffffffffffff16600b6000600184610fd891906137f4565b815260200190815260200160002060010160009054906101000a900473ffffffffffffffffffffffffffffffffffffffff1673ffffffffffffffffffffffffffffffffffffffff16141561118b57600060018261103591906137f4565b90506000600b60008381526020019081526020016000209050806040518060a0016040529081600082015481526020016001820160009054906101000a900473ffffffffffffffffffffffffffffffffffffffff1673ffffffffffffffffffffffffffffffffffffffff1673ffffffffffffffffffffffffffffffffffffffff1681526020016002820160009054906101000a900473ffffffffffffffffffffffffffffffffffffffff1673ffffffffffffffffffffffffffffffffffffffff1673ffffffffffffffffffffffffffffffffffffffff168152602001600382015481526020016004820160009054906101000a900460ff16151515158152505084868151811061116e577f4e487b7100000000000000000000000000000000000000000000000000000000600052603260045260246000fd5b602002602001018190525060018561118691906137f4565b945050505b8080611196906139da565b915050610fa8565b508094505050505090565b6000806002600084815260200190815260200160002060009054906101000a900473ffffffffffffffffffffffffffffffffffffffff169050600073ffffffffffffffffffffffffffffffffffffffff168173ffffffffffffffffffffffffffffffffffffffff161415611252576040517f08c379a000000000000000000000000000000000000000000000000000000000815260040161124990613656565b60405180910390fd5b80915050919050565b60008073ffffffffffffffffffffffffffffffffffffffff168273ffffffffffffffffffffffffffffffffffffffff1614156112cc576040517f08c379a00000000000000000000000000000000000000000000000000000000081526004016112c390613596565b60405180910390fd5b600360008373ffffffffffffffffffffffffffffffffffffffff1673ffffffffffffffffffffffffffffffffffffffff168152602001908152602001600020549050919050565b600061131f6007611f99565b600061132b6007611c8f565b90506113373382611faf565b6113418185612189565b61134b81846121fd565b8091505092915050565b80600b600084815260200190815260200160002060020160006101000a81548173ffffffffffffffffffffffffffffffffffffffff021916908373ffffffffffffffffffffffffffffffffffffffff1602179055505050565b6060600180546113bd90613977565b80601f01602080910402602001604051908101604052809291908181526020018280546113e990613977565b80156114365780601f1061140b57610100808354040283529160200191611436565b820191906000526020600020905b81548152906001019060200180831161141957829003601f168201915b5050505050905090565b61145261144b611bce565b83836123b1565b5050565b3373ffffffffffffffffffffffffffffffffffffffff16600a60009054906101000a900473ffffffffffffffffffffffffffffffffffffffff1673ffffffffffffffffffffffffffffffffffffffff16146114e6576040517f08c379a00000000000000000000000000000000000000000000000000000000081526004016114dd90613536565b60405180910390fd5b8060098190555050565b6115016114fb611bce565b83611c9d565b611540576040517f08c379a0000000000000000000000000000000000000000000000000000000008152600401611537906136b6565b60405180910390fd5b61154c8484848461251e565b50505050565b6000600b60008381526020019081526020016000206003015490506000600b600084815260200190815260200160002060010160009054906101000a900473ffffffffffffffffffffffffffffffffffffffff1690506000600b600085815260200190815260200160002060020160009054906101000a900473ffffffffffffffffffffffffffffffffffffffff169050823414611625576040517f08c379a000000000000000000000000000000000000000000000000000000000815260040161161c90613636565b60405180910390fd5b33600b600086815260200190815260200160002060020160006101000a81548173ffffffffffffffffffffffffffffffffffffffff021916908373ffffffffffffffffffffffffffffffffffffffff1602179055506001600b600086815260200190815260200160002060040160006101000a81548160ff0219169083151502179055506000600b600086815260200190815260200160002060010160006101000a81548173ffffffffffffffffffffffffffffffffffffffff021916908373ffffffffffffffffffffffffffffffffffffffff1602179055506117096008611f99565b611714813386611d32565b600a60009054906101000a900473ffffffffffffffffffffffffffffffffffffffff1673ffffffffffffffffffffffffffffffffffffffff166108fc6009549081150290604051600060405180830381858888f1935050505015801561177e573d6000803e3d6000fd5b508073ffffffffffffffffffffffffffffffffffffffff166108fc349081150290604051600060405180830381858888f193505050501580156117c5573d6000803e3d6000fd5b5050505050565b60606117d782611b83565b60006006600084815260200190815260200160002080546117f790613977565b80601f016020809104026020016040519081016040528092919081815260200182805461182390613977565b80156118705780601f1061184557610100808354040283529160200191611870565b820191906000526020600020905b81548152906001019060200180831161185357829003601f168201915b50505050509050600061188161257a565b90506000815114156118975781925050506118da565b6000825111156118cc5780826040516020016118b4929190613387565b604051602081830303815290604052925050506118da565b6118d584612591565b925050505b919050565b3373ffffffffffffffffffffffffffffffffffffffff16600b600084815260200190815260200160002060020160009054906101000a900473ffffffffffffffffffffffffffffffffffffffff1673ffffffffffffffffffffffffffffffffffffffff1614611983576040517f08c379a000000000000000000000000000000000000000000000000000000000815260040161197a90613616565b60405180910390fd5b6000600b600084815260200190815260200160002060040160006101000a81548160ff02191690831515021790555080600b60008481526020019081526020016000206003018190555030600b600084815260200190815260200160002060010160006101000a81548173ffffffffffffffffffffffffffffffffffffffff021916908373ffffffffffffffffffffffffffffffffffffffff16021790555033600b600084815260200190815260200160002060020160006101000a81548173ffffffffffffffffffffffffffffffffffffffff021916908373ffffffffffffffffffffffffffffffffffffffff160217905550611a8160086125f9565b5050565b6000600560008473ffffffffffffffffffffffffffffffffffffffff1673ffffffffffffffffffffffffffffffffffffffff16815260200190815260200160002060008373ffffffffffffffffffffffffffffffffffffffff1673ffffffffffffffffffffffffffffffffffffffff16815260200190815260200160002060009054906101000a900460ff16905092915050565b60007f01ffc9a7000000000000000000000000000000000000000000000000000000007bffffffffffffffffffffffffffffffffffffffffffffffffffffffff1916827bffffffffffffffffffffffffffffffffffffffffffffffffffffffff1916149050919050565b611b8c81612655565b611bcb576040517f08c379a0000000000000000000000000000000000000000000000000000000008152600401611bc290613656565b60405180910390fd5b50565b600033905090565b816004600083815260200190815260200160002060006101000a81548173ffffffffffffffffffffffffffffffffffffffff021916908373ffffffffffffffffffffffffffffffffffffffff160217905550808273ffffffffffffffffffffffffffffffffffffffff16611c49836111a9565b73ffffffffffffffffffffffffffffffffffffffff167f8c5be1e5ebec7d5bd14f71427d1e84f3dd0314c0f7b2291e5b200ac8c7c3b92560405160405180910390a45050565b600081600001549050919050565b600080611ca9836111a9565b90508073ffffffffffffffffffffffffffffffffffffffff168473ffffffffffffffffffffffffffffffffffffffff161480611ceb5750611cea8185611a85565b5b80611d2957508373ffffffffffffffffffffffffffffffffffffffff16611d1184610698565b73ffffffffffffffffffffffffffffffffffffffff16145b91505092915050565b8273ffffffffffffffffffffffffffffffffffffffff16611d52826111a9565b73ffffffffffffffffffffffffffffffffffffffff1614611da8576040517f08c379a0000000000000000000000000000000000000000000000000000000008152600401611d9f906134f6565b60405180910390fd5b600073ffffffffffffffffffffffffffffffffffffffff168273ffffffffffffffffffffffffffffffffffffffff161415611e18576040517f08c379a0000000000000000000000000000000000000000000000000000000008152600401611e0f90613556565b60405180910390fd5b611e238383836126c1565b611e2e600082611bd6565b6001600360008573ffffffffffffffffffffffffffffffffffffffff1673ffffffffffffffffffffffffffffffffffffffff1681526020019081526020016000206000828254611e7e919061387b565b925050819055506001600360008473ffffffffffffffffffffffffffffffffffffffff1673ffffffffffffffffffffffffffffffffffffffff1681526020019081526020016000206000828254611ed591906137f4565b92505081905550816002600083815260200190815260200160002060006101000a81548173ffffffffffffffffffffffffffffffffffffffff021916908373ffffffffffffffffffffffffffffffffffffffff160217905550808273ffffffffffffffffffffffffffffffffffffffff168473ffffffffffffffffffffffffffffffffffffffff167fddf252ad1be2c89b69c2b068fc378daa952ba7f163c4a11628f55a4df523b3ef60405160405180910390a4611f948383836126c6565b505050565b6001816000016000828254019250508190555050565b600073ffffffffffffffffffffffffffffffffffffffff168273ffffffffffffffffffffffffffffffffffffffff16141561201f576040517f08c379a0000000000000000000000000000000000000000000000000000000008152600401612016906135f6565b60405180910390fd5b61202881612655565b15612068576040517f08c379a000000000000000000000000000000000000000000000000000000000815260040161205f90613516565b60405180910390fd5b612074600083836126c1565b6001600360008473ffffffffffffffffffffffffffffffffffffffff1673ffffffffffffffffffffffffffffffffffffffff16815260200190815260200160002060008282546120c491906137f4565b92505081905550816002600083815260200190815260200160002060006101000a81548173ffffffffffffffffffffffffffffffffffffffff021916908373ffffffffffffffffffffffffffffffffffffffff160217905550808273ffffffffffffffffffffffffffffffffffffffff16600073ffffffffffffffffffffffffffffffffffffffff167fddf252ad1be2c89b69c2b068fc378daa952ba7f163c4a11628f55a4df523b3ef60405160405180910390a4612185600083836126c6565b5050565b61219282612655565b6121d1576040517f08c379a00000000000000000000000000000000000000000000000000000000081526004016121c8906135b6565b60405180910390fd5b806006600084815260200190815260200160002090805190602001906121f8929190612a8f565b505050565b60008111612240576040517f08c379a000000000000000000000000000000000000000000000000000000000815260040161223790613696565b60405180910390fd5b6040518060a001604052808381526020013073ffffffffffffffffffffffffffffffffffffffff1681526020013373ffffffffffffffffffffffffffffffffffffffff16815260200182815260200160001515815250600b60008481526020019081526020016000206000820151816000015560208201518160010160006101000a81548173ffffffffffffffffffffffffffffffffffffffff021916908373ffffffffffffffffffffffffffffffffffffffff16021790555060408201518160020160006101000a81548173ffffffffffffffffffffffffffffffffffffffff021916908373ffffffffffffffffffffffffffffffffffffffff1602179055506060820151816003015560808201518160040160006101000a81548160ff021916908315150217905550905050817fb640004f1d14576d0c209e240cad0410e0d8c0c33a09375861fbadae2588a98d30338460006040516123a594939291906133c6565b60405180910390a25050565b8173ffffffffffffffffffffffffffffffffffffffff168373ffffffffffffffffffffffffffffffffffffffff161415612420576040517f08c379a000000000000000000000000000000000000000000000000000000000815260040161241790613576565b60405180910390fd5b80600560008573ffffffffffffffffffffffffffffffffffffffff1673ffffffffffffffffffffffffffffffffffffffff16815260200190815260200160002060008473ffffffffffffffffffffffffffffffffffffffff1673ffffffffffffffffffffffffffffffffffffffff16815260200190815260200160002060006101000a81548160ff0219169083151502179055508173ffffffffffffffffffffffffffffffffffffffff168373ffffffffffffffffffffffffffffffffffffffff167f17307eab39ab6107e8899845ad3d59bd9653f200f220920489ca2b5937696c31836040516125119190613479565b60405180910390a3505050565b612529848484611d32565b612535848484846126cb565b612574576040517f08c379a000000000000000000000000000000000000000000000000000000000815260040161256b906134d6565b60405180910390fd5b50505050565b606060405180602001604052806000815250905090565b606061259c82611b83565b60006125a661257a565b905060008151116125c657604051806020016040528060008152506125f1565b806125d084612862565b6040516020016125e1929190613387565b6040516020818303038152906040525b915050919050565b60008160000154905060008111612645576040517f08c379a000000000000000000000000000000000000000000000000000000000815260040161263c906134b6565b60405180910390fd5b6001810382600001819055505050565b60008073ffffffffffffffffffffffffffffffffffffffff166002600084815260200190815260200160002060009054906101000a900473ffffffffffffffffffffffffffffffffffffffff1673ffffffffffffffffffffffffffffffffffffffff1614159050919050565b505050565b505050565b60006126ec8473ffffffffffffffffffffffffffffffffffffffff16612a0f565b15612855578373ffffffffffffffffffffffffffffffffffffffff1663150b7a02612715611bce565b8786866040518563ffffffff1660e01b8152600401612737949392919061340b565b602060405180830381600087803b15801561275157600080fd5b505af192505050801561278257506040513d601f19601f8201168201806040525081019061277f9190612e3b565b60015b612805573d80600081146127b2576040519150601f19603f3d011682016040523d82523d6000602084013e6127b7565b606091505b506000815114156127fd576040517f08c379a00000000000000000000000000000000000000000000000000000000081526004016127f4906134d6565b60405180910390fd5b805181602001fd5b63150b7a0260e01b7bffffffffffffffffffffffffffffffffffffffffffffffffffffffff1916817bffffffffffffffffffffffffffffffffffffffffffffffffffffffff19161491505061285a565b600190505b949350505050565b606060008214156128aa576040518060400160405280600181526020017f30000000000000000000000000000000000000000000000000000000000000008152509050612a0a565b600082905060005b600082146128dc5780806128c5906139da565b915050600a826128d5919061384a565b91506128b2565b60008167ffffffffffffffff81111561291e577f4e487b7100000000000000000000000000000000000000000000000000000000600052604160045260246000fd5b6040519080825280601f01601f1916602001820160405280156129505781602001600182028036833780820191505090505b5090505b60008514612a0357600182612969919061387b565b9150600a856129789190613a23565b603061298491906137f4565b60f81b8183815181106129c0577f4e487b7100000000000000000000000000000000000000000000000000000000600052603260045260246000fd5b60200101907effffffffffffffffffffffffffffffffffffffffffffffffffffffffffffff1916908160001a905350600a856129fc919061384a565b9450612954565b8093505050505b919050565b6000808273ffffffffffffffffffffffffffffffffffffffff163b119050919050565b6040518060a0016040528060008152602001600073ffffffffffffffffffffffffffffffffffffffff168152602001600073ffffffffffffffffffffffffffffffffffffffff168152602001600081526020016000151581525090565b828054612a9b90613977565b90600052602060002090601f016020900481019282612abd5760008555612b04565b82601f10612ad657805160ff1916838001178555612b04565b82800160010185558215612b04579182015b82811115612b03578251825591602001919060010190612ae8565b5b509050612b119190612b15565b5090565b5b80821115612b2e576000816000905550600101612b16565b5090565b6000612b45612b4084613716565b6136f1565b905082815260208101848484011115612b5d57600080fd5b612b68848285613935565b509392505050565b6000612b83612b7e84613747565b6136f1565b905082815260208101848484011115612b9b57600080fd5b612ba6848285613935565b509392505050565b600081359050612bbd81613f7c565b92915050565b600081359050612bd281613f93565b92915050565b600081359050612be781613faa565b92915050565b600081519050612bfc81613faa565b92915050565b600082601f830112612c1357600080fd5b8135612c23848260208601612b32565b91505092915050565b600082601f830112612c3d57600080fd5b8135612c4d848260208601612b70565b91505092915050565b600081359050612c6581613fc1565b92915050565b600060208284031215612c7d57600080fd5b6000612c8b84828501612bae565b91505092915050565b60008060408385031215612ca757600080fd5b6000612cb585828601612bae565b9250506020612cc685828601612bae565b9150509250929050565b600080600060608486031215612ce557600080fd5b6000612cf386828701612bae565b9350506020612d0486828701612bae565b9250506040612d1586828701612c56565b9150509250925092565b60008060008060808587031215612d3557600080fd5b6000612d4387828801612bae565b9450506020612d5487828801612bae565b9350506040612d6587828801612c56565b925050606085013567ffffffffffffffff811115612d8257600080fd5b612d8e87828801612c02565b91505092959194509250565b60008060408385031215612dad57600080fd5b6000612dbb85828601612bae565b9250506020612dcc85828601612bc3565b9150509250929050565b60008060408385031215612de957600080fd5b6000612df785828601612bae565b9250506020612e0885828601612c56565b9150509250929050565b600060208284031215612e2457600080fd5b6000612e3284828501612bd8565b91505092915050565b600060208284031215612e4d57600080fd5b6000612e5b84828501612bed565b91505092915050565b60008060408385031215612e7757600080fd5b600083013567ffffffffffffffff811115612e9157600080fd5b612e9d85828601612c2c565b9250506020612eae85828601612c56565b9150509250929050565b600060208284031215612eca57600080fd5b6000612ed884828501612c56565b91505092915050565b60008060408385031215612ef457600080fd5b6000612f0285828601612c56565b9250506020612f1385828601612bae565b9150509250929050565b60008060408385031215612f3057600080fd5b6000612f3e85828601612c56565b9250506020612f4f85828601612c56565b9150509250929050565b6000612f658383613301565b60a08301905092915050565b612f7a816138c1565b82525050565b612f89816138af565b82525050565b6000612f9a82613788565b612fa481856137b6565b9350612faf83613778565b8060005b83811015612fe0578151612fc78882612f59565b9750612fd2836137a9565b925050600181019050612fb3565b5085935050505092915050565b612ff6816138d3565b82525050565b613005816138d3565b82525050565b600061301682613793565b61302081856137c7565b9350613030818560208601613944565b61303981613b10565b840191505092915050565b600061304f8261379e565b61305981856137d8565b9350613069818560208601613944565b61307281613b10565b840191505092915050565b60006130888261379e565b61309281856137e9565b93506130a2818560208601613944565b80840191505092915050565b60006130bb601b836137d8565b91506130c682613b21565b602082019050919050565b60006130de6032836137d8565b91506130e982613b4a565b604082019050919050565b60006131016025836137d8565b915061310c82613b99565b604082019050919050565b6000613124601c836137d8565b915061312f82613be8565b602082019050919050565b60006131476022836137d8565b915061315282613c11565b604082019050919050565b600061316a6024836137d8565b915061317582613c60565b604082019050919050565b600061318d6019836137d8565b915061319882613caf565b602082019050919050565b60006131b06029836137d8565b91506131bb82613cd8565b604082019050919050565b60006131d3602e836137d8565b91506131de82613d27565b604082019050919050565b60006131f6603e836137d8565b915061320182613d76565b604082019050919050565b60006132196020836137d8565b915061322482613dc5565b602082019050919050565b600061323c602a836137d8565b915061324782613dee565b604082019050919050565b600061325f6036836137d8565b915061326a82613e3d565b604082019050919050565b60006132826018836137d8565b915061328d82613e8c565b602082019050919050565b60006132a56021836137d8565b91506132b082613eb5565b604082019050919050565b60006132c8601c836137d8565b91506132d382613f04565b602082019050919050565b60006132eb602e836137d8565b91506132f682613f2d565b604082019050919050565b60a0820160008201516133176000850182613369565b50602082015161332a6020850182612f71565b50604082015161333d6040850182612f71565b5060608201516133506060850182613369565b5060808201516133636080850182612fed565b50505050565b6133728161392b565b82525050565b6133818161392b565b82525050565b6000613393828561307d565b915061339f828461307d565b91508190509392505050565b60006020820190506133c06000830184612f80565b92915050565b60006080820190506133db6000830187612f80565b6133e86020830186612f80565b6133f56040830185613378565b6134026060830184612ffc565b95945050505050565b60006080820190506134206000830187612f80565b61342d6020830186612f80565b61343a6040830185613378565b818103606083015261344c818461300b565b905095945050505050565b600060208201905081810360008301526134718184612f8f565b905092915050565b600060208201905061348e6000830184612ffc565b92915050565b600060208201905081810360008301526134ae8184613044565b905092915050565b600060208201905081810360008301526134cf816130ae565b9050919050565b600060208201905081810360008301526134ef816130d1565b9050919050565b6000602082019050818103600083015261350f816130f4565b9050919050565b6000602082019050818103600083015261352f81613117565b9050919050565b6000602082019050818103600083015261354f8161313a565b9050919050565b6000602082019050818103600083015261356f8161315d565b9050919050565b6000602082019050818103600083015261358f81613180565b9050919050565b600060208201905081810360008301526135af816131a3565b9050919050565b600060208201905081810360008301526135cf816131c6565b9050919050565b600060208201905081810360008301526135ef816131e9565b9050919050565b6000602082019050818103600083015261360f8161320c565b9050919050565b6000602082019050818103600083015261362f8161322f565b9050919050565b6000602082019050818103600083015261364f81613252565b9050919050565b6000602082019050818103600083015261366f81613275565b9050919050565b6000602082019050818103600083015261368f81613298565b9050919050565b600060208201905081810360008301526136af816132bb565b9050919050565b600060208201905081810360008301526136cf816132de565b9050919050565b60006020820190506136eb6000830184613378565b92915050565b60006136fb61370c565b905061370782826139a9565b919050565b6000604051905090565b600067ffffffffffffffff82111561373157613730613ae1565b5b61373a82613b10565b9050602081019050919050565b600067ffffffffffffffff82111561376257613761613ae1565b5b61376b82613b10565b9050602081019050919050565b6000819050602082019050919050565b600081519050919050565b600081519050919050565b600081519050919050565b6000602082019050919050565b600082825260208201905092915050565b600082825260208201905092915050565b600082825260208201905092915050565b600081905092915050565b60006137ff8261392b565b915061380a8361392b565b9250827fffffffffffffffffffffffffffffffffffffffffffffffffffffffffffffffff0382111561383f5761383e613a54565b5b828201905092915050565b60006138558261392b565b91506138608361392b565b9250826138705761386f613a83565b5b828204905092915050565b60006138868261392b565b91506138918361392b565b9250828210156138a4576138a3613a54565b5b828203905092915050565b60006138ba8261390b565b9050919050565b60006138cc8261390b565b9050919050565b60008115159050919050565b60007fffffffff0000000000000000000000000000000000000000000000000000000082169050919050565b600073ffffffffffffffffffffffffffffffffffffffff82169050919050565b6000819050919050565b82818337600083830152505050565b60005b83811015613962578082015181840152602081019050613947565b83811115613971576000848401525b50505050565b6000600282049050600182168061398f57607f821691505b602082108114156139a3576139a2613ab2565b5b50919050565b6139b282613b10565b810181811067ffffffffffffffff821117156139d1576139d0613ae1565b5b80604052505050565b60006139e58261392b565b91507fffffffffffffffffffffffffffffffffffffffffffffffffffffffffffffffff821415613a1857613a17613a54565b5b600182019050919050565b6000613a2e8261392b565b9150613a398361392b565b925082613a4957613a48613a83565b5b828206905092915050565b7f4e487b7100000000000000000000000000000000000000000000000000000000600052601160045260246000fd5b7f4e487b7100000000000000000000000000000000000000000000000000000000600052601260045260246000fd5b7f4e487b7100000000000000000000000000000000000000000000000000000000600052602260045260246000fd5b7f4e487b7100000000000000000000000000000000000000000000000000000000600052604160045260246000fd5b6000601f19601f8301169050919050565b7f436f756e7465723a2064656372656d656e74206f766572666c6f770000000000600082015250565b7f4552433732313a207472616e7366657220746f206e6f6e20455243373231526560008201527f63656976657220696d706c656d656e7465720000000000000000000000000000602082015250565b7f4552433732313a207472616e736665722066726f6d20696e636f72726563742060008201527f6f776e6572000000000000000000000000000000000000000000000000000000602082015250565b7f4552433732313a20746f6b656e20616c7265616479206d696e74656400000000600082015250565b7f4f6e6c79206d61726b6574706c616365206f776e65722063616e20757064617460008201527f652e000000000000000000000000000000000000000000000000000000000000602082015250565b7f4552433732313a207472616e7366657220746f20746865207a65726f2061646460008201527f7265737300000000000000000000000000000000000000000000000000000000602082015250565b7f4552433732313a20617070726f766520746f2063616c6c657200000000000000600082015250565b7f4552433732313a2061646472657373207a65726f206973206e6f74206120766160008201527f6c6964206f776e65720000000000000000000000000000000000000000000000602082015250565b7f45524337323155524953746f726167653a2055524920736574206f66206e6f6e60008201527f6578697374656e7420746f6b656e000000000000000000000000000000000000602082015250565b7f4552433732313a20617070726f76652063616c6c6572206973206e6f7420746f60008201527f6b656e206f776e6572206e6f7220617070726f76656420666f7220616c6c0000602082015250565b7f4552433732313a206d696e7420746f20746865207a65726f2061646472657373600082015250565b7f4f6e6c79206974656d206f776e65722063616e20706572666f726d207468697360008201527f206f7065726174696f6e00000000000000000000000000000000000000000000602082015250565b7f506c65617365207375626d6974207468652020707269636520696e206f72646560008201527f7220746f2074616b652074686520707572636861736500000000000000000000602082015250565b7f4552433732313a20696e76616c696420746f6b656e2049440000000000000000600082015250565b7f4552433732313a20617070726f76616c20746f2063757272656e74206f776e6560008201527f7200000000000000000000000000000000000000000000000000000000000000602082015250565b7f5072696365206d757374206265206d696e696d756d2020312077656900000000600082015250565b7f4552433732313a2063616c6c6572206973206e6f7420746f6b656e206f776e6560008201527f72206e6f7220617070726f766564000000000000000000000000000000000000602082015250565b613f85816138af565b8114613f9057600080fd5b50565b613f9c816138d3565b8114613fa757600080fd5b50565b613fb3816138df565b8114613fbe57600080fd5b50565b613fca8161392b565b8114613fd557600080fd5b5056fea26469706673582212204c16ede4f3f625b2c445dba70922f2bb68ff4a4fa1065717357309ff00d7e50e64736f6c63430008040033",
  "linkReferences": {},
  "deployedLinkReferences": {}
}